{
  "contractName": "GanacheTesting",
  "abi": [
    {
      "inputs": [],
      "stateMutability": "nonpayable",
      "type": "constructor"
    },
    {
      "inputs": [],
      "name": "message",
      "outputs": [
        {
          "internalType": "string",
          "name": "",
          "type": "string"
        }
      ],
      "stateMutability": "view",
      "type": "function",
      "constant": true
    },
    {
      "inputs": [],
      "name": "owner",
      "outputs": [
        {
          "internalType": "address",
          "name": "",
          "type": "address"
        }
      ],
      "stateMutability": "view",
      "type": "function",
      "constant": true
    },
    {
      "inputs": [
        {
          "internalType": "string",
          "name": "_message",
          "type": "string"
        }
      ],
      "name": "setMessage",
      "outputs": [
        {
          "internalType": "string",
          "name": "",
          "type": "string"
        }
      ],
      "stateMutability": "nonpayable",
      "type": "function"
    }
  ],
  "bytecode": "0x6080604052336000806101000a81548173ffffffffffffffffffffffffffffffffffffffff021916908373ffffffffffffffffffffffffffffffffffffffff16021790555034801561005057600080fd5b506040518060600160405280602f815260200161083c602f91396001908051906020019061007f929190610085565b50610189565b82805461009190610128565b90600052602060002090601f0160209004810192826100b357600085556100fa565b82601f106100cc57805160ff19168380011785556100fa565b828001600101855582156100fa579182015b828111156100f95782518255916020019190600101906100de565b5b509050610107919061010b565b5090565b5b8082111561012457600081600090555060010161010c565b5090565b6000600282049050600182168061014057607f821691505b602082108114156101545761015361015a565b5b50919050565b7f4e487b7100000000000000000000000000000000000000000000000000000000600052602260045260246000fd5b6106a4806101986000396000f3fe608060405234801561001057600080fd5b50600436106100415760003560e01c8063368b8772146100465780638da5cb5b14610076578063e21f37ce14610094575b600080fd5b610060600480360381019061005b91906103b6565b6100b2565b60405161006d919061049a565b60405180910390f35b61007e6101f9565b60405161008b919061047f565b60405180910390f35b61009c61021d565b6040516100a9919061049a565b60405180910390f35b606060008054906101000a900473ffffffffffffffffffffffffffffffffffffffff1673ffffffffffffffffffffffffffffffffffffffff163373ffffffffffffffffffffffffffffffffffffffff1614610142576040517f08c379a0000000000000000000000000000000000000000000000000000000008152600401610139906104bc565b60405180910390fd5b600082511161015057600080fd5b81600190805190602001906101669291906102ab565b5060018054610174906105cd565b80601f01602080910402602001604051908101604052809291908181526020018280546101a0906105cd565b80156101ed5780601f106101c2576101008083540402835291602001916101ed565b820191906000526020600020905b8154815290600101906020018083116101d057829003601f168201915b50505050509050919050565b60008054906101000a900473ffffffffffffffffffffffffffffffffffffffff1681565b6001805461022a906105cd565b80601f0160208091040260200160405190810160405280929190818152602001828054610256906105cd565b80156102a35780601f10610278576101008083540402835291602001916102a3565b820191906000526020600020905b81548152906001019060200180831161028657829003601f168201915b505050505081565b8280546102b7906105cd565b90600052602060002090601f0160209004810192826102d95760008555610320565b82601f106102f257805160ff1916838001178555610320565b82800160010185558215610320579182015b8281111561031f578251825591602001919060010190610304565b5b50905061032d9190610331565b5090565b5b8082111561034a576000816000905550600101610332565b5090565b600061036161035c8461050d565b6104dc565b90508281526020810184848401111561037957600080fd5b61038484828561058b565b509392505050565b600082601f83011261039d57600080fd5b81356103ad84826020860161034e565b91505092915050565b6000602082840312156103c857600080fd5b600082013567ffffffffffffffff8111156103e257600080fd5b6103ee8482850161038c565b91505092915050565b61040081610559565b82525050565b60006104118261053d565b61041b8185610548565b935061042b81856020860161059a565b6104348161065d565b840191505092915050565b600061044c601383610548565b91507f526573747269637420746f206f776e65725475000000000000000000000000006000830152602082019050919050565b600060208201905061049460008301846103f7565b92915050565b600060208201905081810360008301526104b48184610406565b905092915050565b600060208201905081810360008301526104d58161043f565b9050919050565b6000604051905081810181811067ffffffffffffffff821117156105035761050261062e565b5b8060405250919050565b600067ffffffffffffffff8211156105285761052761062e565b5b601f19601f8301169050602081019050919050565b600081519050919050565b600082825260208201905092915050565b60006105648261056b565b9050919050565b600073ffffffffffffffffffffffffffffffffffffffff82169050919050565b82818337600083830152505050565b60005b838110156105b857808201518184015260208101905061059d565b838111156105c7576000848401525b50505050565b600060028204905060018216806105e557607f821691505b602082108114156105f9576105f86105ff565b5b50919050565b7f4e487b7100000000000000000000000000000000000000000000000000000000600052602260045260246000fd5b7f4e487b7100000000000000000000000000000000000000000000000000000000600052604160045260246000fd5b6000601f19601f830116905091905056fea2646970667358221220baac76b9cd9cc792aa9ab7e483bee80056b17756e012bfa7dffee691a8a069ea64736f6c6343000800003350726f62616e646f20706f72203264612076657a20656c2047616e6163686520536d61727420436f6e747261637421",
  "immutableReferences": {},
  "source": "pragma solidity ^0.8.0;\r\n// solidity >=0.4.22 <0.9.0 \r\n\r\ncontract GanacheTesting {\r\n  address public owner = msg.sender;\r\n  string public message;\r\n\r\n  // this function runs when the contract is deployed\r\n  constructor() {\r\n    \r\n    message = \"Probando por 2da vez el Ganache Smart Contract!\";\r\n  }\r\n\r\n  modifier ownerOnly() {\r\n    require(\r\n      msg.sender == owner,\r\n      \"Restrict to ownerTu\"\r\n    );\r\n    _;\r\n  }\r\n\r\n  // this function can be only be executed by the owner of the contract\r\n  function setMessage(string memory _message) \r\n    public \r\n    ownerOnly \r\n    returns(string memory) \r\n  {\r\n    // empty constraint check\r\n    require(bytes(_message).length > 0);\r\n\r\n    // new message is set and returned\r\n    message = _message;\r\n    return message;\r\n  }\r\n}",
  "sourcePath": "C:\\Users\\joshu\\Downloads\\2nd_Ganache_Test\\contracts\\GanacheTesting.sol",
  "compiler": {
    "name": "solc",
    "version": "0.8.0+commit.c7dfd78e.Emscripten.clang"
  },
  "schemaVersion": "3.4.16",
  "updatedAt": "2025-09-10T17:56:42.295Z",
  "networkType": "ethereum",
  "devdoc": {
    "kind": "dev",
    "methods": {},
    "version": 1
  },
  "userdoc": {
    "kind": "user",
    "methods": {},
    "version": 1
  }
}