{
  "contractName": "MovementsLog",
  "abi": [
    {
      "inputs": [
        {
          "internalType": "address",
          "name": "_admin",
          "type": "address"
        }
      ],
      "stateMutability": "nonpayable",
      "type": "constructor"
    },
    {
      "anonymous": false,
      "inputs": [
        {
          "indexed": true,
          "internalType": "bytes32",
          "name": "uidKey",
          "type": "bytes32"
        },
        {
          "indexed": true,
          "internalType": "bytes32",
          "name": "movementHash",
          "type": "bytes32"
        },
        {
          "indexed": false,
          "internalType": "bytes32",
          "name": "prevHash",
          "type": "bytes32"
        },
        {
          "indexed": false,
          "internalType": "uint8",
          "name": "movementType",
          "type": "uint8"
        },
        {
          "indexed": false,
          "internalType": "uint256",
          "name": "quantity",
          "type": "uint256"
        },
        {
          "indexed": false,
          "internalType": "uint256",
          "name": "locationId",
          "type": "uint256"
        },
        {
          "indexed": false,
          "internalType": "uint64",
          "name": "ts",
          "type": "uint64"
        },
        {
          "indexed": false,
          "internalType": "string",
          "name": "metadataURI",
          "type": "string"
        },
        {
          "indexed": true,
          "internalType": "address",
          "name": "actor",
          "type": "address"
        }
      ],
      "name": "MovementLogged",
      "type": "event"
    },
    {
      "inputs": [],
      "name": "admin",
      "outputs": [
        {
          "internalType": "address",
          "name": "",
          "type": "address"
        }
      ],
      "stateMutability": "view",
      "type": "function",
      "constant": true
    },
    {
      "inputs": [
        {
          "internalType": "bytes32",
          "name": "",
          "type": "bytes32"
        }
      ],
      "name": "latestHash",
      "outputs": [
        {
          "internalType": "bytes32",
          "name": "",
          "type": "bytes32"
        }
      ],
      "stateMutability": "view",
      "type": "function",
      "constant": true
    },
    {
      "inputs": [
        {
          "internalType": "address",
          "name": "_admin",
          "type": "address"
        }
      ],
      "name": "setAdmin",
      "outputs": [],
      "stateMutability": "nonpayable",
      "type": "function"
    },
    {
      "inputs": [
        {
          "internalType": "bytes32",
          "name": "uidKey",
          "type": "bytes32"
        },
        {
          "internalType": "uint8",
          "name": "movementType",
          "type": "uint8"
        },
        {
          "internalType": "uint256",
          "name": "quantity",
          "type": "uint256"
        },
        {
          "internalType": "uint256",
          "name": "locationId",
          "type": "uint256"
        },
        {
          "internalType": "uint64",
          "name": "ts",
          "type": "uint64"
        },
        {
          "internalType": "string",
          "name": "metadataURI",
          "type": "string"
        },
        {
          "internalType": "bytes32",
          "name": "prevHash",
          "type": "bytes32"
        },
        {
          "internalType": "bytes32",
          "name": "contentHash",
          "type": "bytes32"
        }
      ],
      "name": "logMovement",
      "outputs": [
        {
          "internalType": "bytes32",
          "name": "movementHash",
          "type": "bytes32"
        }
      ],
      "stateMutability": "nonpayable",
      "type": "function"
    }
  ],
  "bytecode": "0x608060405234801561001057600080fd5b50604051610b03380380610b038339818101604052810190610032919061008d565b806000806101000a81548173ffffffffffffffffffffffffffffffffffffffff021916908373ffffffffffffffffffffffffffffffffffffffff160217905550506100ff565b600081519050610087816100e8565b92915050565b60006020828403121561009f57600080fd5b60006100ad84828501610078565b91505092915050565b60006100c1826100c8565b9050919050565b600073ffffffffffffffffffffffffffffffffffffffff82169050919050565b6100f1816100b6565b81146100fc57600080fd5b50565b6109f58061010e6000396000f3fe608060405234801561001057600080fd5b506004361061004c5760003560e01c806361a7e74114610051578063704b6c0214610081578063a579c4e51461009d578063f851a440146100cd575b600080fd5b61006b600480360381019061006691906104e0565b6100eb565b604051610078919061072a565b60405180910390f35b61009b600480360381019061009691906104b7565b610103565b005b6100b760048036038101906100b29190610509565b6101d4565b6040516100c4919061072a565b60405180910390f35b6100d56103e0565b6040516100e2919061070f565b60405180910390f35b60016020528060005260406000206000915090505481565b60008054906101000a900473ffffffffffffffffffffffffffffffffffffffff1673ffffffffffffffffffffffffffffffffffffffff163373ffffffffffffffffffffffffffffffffffffffff1614610191576040517f08c379a000000000000000000000000000000000000000000000000000000000815260040161018890610874565b60405180910390fd5b806000806101000a81548173ffffffffffffffffffffffffffffffffffffffff021916908373ffffffffffffffffffffffffffffffffffffffff16021790555050565b60008060009054906101000a900473ffffffffffffffffffffffffffffffffffffffff1673ffffffffffffffffffffffffffffffffffffffff163373ffffffffffffffffffffffffffffffffffffffff1614610265576040517f08c379a000000000000000000000000000000000000000000000000000000000815260040161025c90610874565b60405180910390fd5b6000801b83146102c95782600160008c815260200190815260200160002054146102c4576040517f08c379a00000000000000000000000000000000000000000000000000000000081526004016102bb90610854565b60405180910390fd5b610322565b6000801b600160008c81526020019081526020016000205414610321576040517f08c379a000000000000000000000000000000000000000000000000000000000815260040161031890610894565b60405180910390fd5b5b89898989898989898933436040516020016103479b9a999897969594939291906107af565b60405160208183030381529060405280519060200120905080600160008c8152602001908152602001600020819055503373ffffffffffffffffffffffffffffffffffffffff16818b7f370171bf6bfe9195ad141cfbcb52505629a9a06d45817b2850de1f53361ae66a868d8d8d8d8d8d6040516103cb9796959493929190610745565b60405180910390a49998505050505050505050565b60008054906101000a900473ffffffffffffffffffffffffffffffffffffffff1681565b6000813590506104138161094c565b92915050565b60008135905061042881610963565b92915050565b60008083601f84011261044057600080fd5b8235905067ffffffffffffffff81111561045957600080fd5b60208301915083600182028301111561047157600080fd5b9250929050565b6000813590506104878161097a565b92915050565b60008135905061049c81610991565b92915050565b6000813590506104b1816109a8565b92915050565b6000602082840312156104c957600080fd5b60006104d784828501610404565b91505092915050565b6000602082840312156104f257600080fd5b600061050084828501610419565b91505092915050565b60008060008060008060008060006101008a8c03121561052857600080fd5b60006105368c828d01610419565b99505060206105478c828d016104a2565b98505060406105588c828d01610478565b97505060606105698c828d01610478565b965050608061057a8c828d0161048d565b95505060a08a013567ffffffffffffffff81111561059757600080fd5b6105a38c828d0161042e565b945094505060c06105b68c828d01610419565b92505060e06105c78c828d01610419565b9150509295985092959850929598565b6105e0816108c5565b82525050565b6105ef816108d7565b82525050565b600061060183856108b4565b935061060e83858461092c565b6106178361093b565b840190509392505050565b600061062f600c836108b4565b91507f62616420707265764861736800000000000000000000000000000000000000006000830152602082019050919050565b600061066f6009836108b4565b91507f6e6f742061646d696e00000000000000000000000000000000000000000000006000830152602082019050919050565b60006106af601d836108b4565b91507f616c726561647920737461727465643b207573652070726576486173680000006000830152602082019050919050565b6106eb81610901565b82525050565b6106fa8161090b565b82525050565b6107098161091f565b82525050565b600060208201905061072460008301846105d7565b92915050565b600060208201905061073f60008301846105e6565b92915050565b600060c08201905061075a600083018a6105e6565b6107676020830189610700565b61077460408301886106e2565b61078160608301876106e2565b61078e60808301866106f1565b81810360a08301526107a18184866105f5565b905098975050505050505050565b6000610140820190506107c5600083018e6105e6565b6107d2602083018d610700565b6107df604083018c6106e2565b6107ec606083018b6106e2565b6107f9608083018a6106f1565b81810360a083015261080c81888a6105f5565b905061081b60c08301876105e6565b61082860e08301866105e6565b6108366101008301856105d7565b6108446101208301846106e2565b9c9b505050505050505050505050565b6000602082019050818103600083015261086d81610622565b9050919050565b6000602082019050818103600083015261088d81610662565b9050919050565b600060208201905081810360008301526108ad816106a2565b9050919050565b600082825260208201905092915050565b60006108d0826108e1565b9050919050565b6000819050919050565b600073ffffffffffffffffffffffffffffffffffffffff82169050919050565b6000819050919050565b600067ffffffffffffffff82169050919050565b600060ff82169050919050565b82818337600083830152505050565b6000601f19601f8301169050919050565b610955816108c5565b811461096057600080fd5b50565b61096c816108d7565b811461097757600080fd5b50565b61098381610901565b811461098e57600080fd5b50565b61099a8161090b565b81146109a557600080fd5b50565b6109b18161091f565b81146109bc57600080fd5b5056fea2646970667358221220cc75ac1a3045f83df6a02933770d388b87529b674d8b79c039d5345732ac1ad464736f6c63430008000033",
  "immutableReferences": {},
  "source": "pragma solidity ^0.8.0;\r\n\r\ncontract MovementsLog {\r\n    address public admin;\r\n    mapping(bytes32 => bytes32) public latestHash;\r\n\r\n    event MovementLogged(\r\n        bytes32 indexed uidKey,\r\n        bytes32 indexed movementHash,\r\n        bytes32 prevHash,\r\n        uint8  movementType,\r\n        uint256 quantity,\r\n        uint256 locationId,\r\n        uint64 ts,\r\n        string metadataURI,\r\n        address indexed actor\r\n    );\r\n\r\n    modifier onlyAdmin(){ require(msg.sender == admin, \"not admin\"); _; }\r\n\r\n    constructor(address _admin) { admin = _admin; }\r\n    function setAdmin(address _admin) external onlyAdmin { admin = _admin; }\r\n\r\n    function logMovement(\r\n        bytes32 uidKey,\r\n        uint8 movementType,\r\n        uint256 quantity,\r\n        uint256 locationId,\r\n        uint64 ts,\r\n        string calldata metadataURI,\r\n        bytes32 prevHash,\r\n        bytes32 contentHash\r\n    ) external onlyAdmin returns (bytes32 movementHash) {\r\n        if (prevHash != bytes32(0)) {\r\n            require(latestHash[uidKey] == prevHash, \"bad prevHash\");\r\n        } else {\r\n            require(latestHash[uidKey] == bytes32(0), \"already started; use prevHash\");\r\n        }\r\n\r\n        movementHash = keccak256(abi.encode(\r\n            uidKey, movementType, quantity, locationId, ts, metadataURI, prevHash, contentHash, msg.sender, block.number\r\n        ));\r\n\r\n        latestHash[uidKey] = movementHash;\r\n\r\n        emit MovementLogged(\r\n            uidKey, movementHash, prevHash, movementType, quantity, locationId, ts, metadataURI, msg.sender\r\n        );\r\n    }\r\n}\r\n",
  "sourcePath": "C:\\Users\\joshu\\Downloads\\2nd_Ganache_Test\\contracts\\MovementsLog.sol",
  "compiler": {
    "name": "solc",
    "version": "0.8.0+commit.c7dfd78e.Emscripten.clang"
  },
  "schemaVersion": "3.4.16",
  "updatedAt": "2025-09-10T17:56:42.487Z",
  "networkType": "ethereum",
  "devdoc": {
    "kind": "dev",
    "methods": {},
    "version": 1
  },
  "userdoc": {
    "kind": "user",
    "methods": {},
    "version": 1
  }
}