{
  "contractName": "WarehouseTransfer",
  "abi": [
    {
      "inputs": [],
      "stateMutability": "nonpayable",
      "type": "constructor"
    },
    {
      "anonymous": false,
      "inputs": [
        {
          "indexed": false,
          "internalType": "uint256",
          "name": "productId",
          "type": "uint256"
        },
        {
          "indexed": false,
          "internalType": "address",
          "name": "warehouse",
          "type": "address"
        },
        {
          "indexed": false,
          "internalType": "bool",
          "name": "isOwner",
          "type": "bool"
        }
      ],
      "name": "OwnershipVerified",
      "type": "event"
    },
    {
      "anonymous": false,
      "inputs": [
        {
          "indexed": false,
          "internalType": "uint256",
          "name": "productId",
          "type": "uint256"
        },
        {
          "indexed": false,
          "internalType": "address",
          "name": "fromWarehouse",
          "type": "address"
        },
        {
          "indexed": false,
          "internalType": "address",
          "name": "toWarehouse",
          "type": "address"
        }
      ],
      "name": "ProductTransferred",
      "type": "event"
    },
    {
      "inputs": [],
      "name": "owner",
      "outputs": [
        {
          "internalType": "address",
          "name": "",
          "type": "address"
        }
      ],
      "stateMutability": "view",
      "type": "function",
      "constant": true
    },
    {
      "inputs": [
        {
          "internalType": "uint256",
          "name": "",
          "type": "uint256"
        }
      ],
      "name": "productWarehouse",
      "outputs": [
        {
          "internalType": "address",
          "name": "",
          "type": "address"
        }
      ],
      "stateMutability": "view",
      "type": "function",
      "constant": true
    },
    {
      "inputs": [
        {
          "internalType": "uint256[]",
          "name": "productIds",
          "type": "uint256[]"
        },
        {
          "internalType": "address[]",
          "name": "warehouses",
          "type": "address[]"
        }
      ],
      "name": "initializeProducts",
      "outputs": [],
      "stateMutability": "nonpayable",
      "type": "function"
    },
    {
      "inputs": [
        {
          "internalType": "uint256",
          "name": "productId",
          "type": "uint256"
        },
        {
          "internalType": "address",
          "name": "toWarehouse",
          "type": "address"
        }
      ],
      "name": "transferProduct",
      "outputs": [],
      "stateMutability": "nonpayable",
      "type": "function"
    },
    {
      "inputs": [
        {
          "internalType": "uint256",
          "name": "productId",
          "type": "uint256"
        },
        {
          "internalType": "address",
          "name": "warehouse",
          "type": "address"
        }
      ],
      "name": "verifyOwnership",
      "outputs": [
        {
          "internalType": "bool",
          "name": "",
          "type": "bool"
        }
      ],
      "stateMutability": "view",
      "type": "function",
      "constant": true
    },
    {
      "inputs": [
        {
          "internalType": "uint256",
          "name": "productId",
          "type": "uint256"
        }
      ],
      "name": "getProductWarehouse",
      "outputs": [
        {
          "internalType": "address",
          "name": "",
          "type": "address"
        }
      ],
      "stateMutability": "view",
      "type": "function",
      "constant": true
    },
    {
      "inputs": [
        {
          "internalType": "uint256",
          "name": "productId",
          "type": "uint256"
        }
      ],
      "name": "productExists",
      "outputs": [
        {
          "internalType": "bool",
          "name": "",
          "type": "bool"
        }
      ],
      "stateMutability": "view",
      "type": "function",
      "constant": true
    }
  ],
  "bytecode": "0x608060405234801561001057600080fd5b5033600160006101000a81548173ffffffffffffffffffffffffffffffffffffffff021916908373ffffffffffffffffffffffffffffffffffffffff160217905550610ec9806100616000396000f3fe608060405234801561001057600080fd5b506004361061007d5760003560e01c80638da5cb5b1161005b5780638da5cb5b14610112578063af55ed6414610130578063e43059e514610160578063ef219e901461017c5761007d565b806309cc449d146100825780631ab6e77c146100b257806347e79918146100e2575b600080fd5b61009c600480360381019061009791906109a0565b610198565b6040516100a99190610bca565b60405180910390f35b6100cc60048036038101906100c79190610977565b610203565b6040516100d99190610baf565b60405180910390f35b6100fc60048036038101906100f79190610977565b61023f565b6040516101099190610baf565b60405180910390f35b61011a610272565b6040516101279190610baf565b60405180910390f35b61014a60048036038101906101459190610977565b610298565b6040516101579190610bca565b60405180910390f35b61017a600480360381019061017591906109a0565b610303565b005b6101966004803603810190610191919061090b565b6105ec565b005b60008173ffffffffffffffffffffffffffffffffffffffff1660008085815260200190815260200160002060009054906101000a900473ffffffffffffffffffffffffffffffffffffffff1673ffffffffffffffffffffffffffffffffffffffff1614905092915050565b600080600083815260200190815260200160002060009054906101000a900473ffffffffffffffffffffffffffffffffffffffff169050919050565b60006020528060005260406000206000915054906101000a900473ffffffffffffffffffffffffffffffffffffffff1681565b600160009054906101000a900473ffffffffffffffffffffffffffffffffffffffff1681565b60008073ffffffffffffffffffffffffffffffffffffffff1660008084815260200190815260200160002060009054906101000a900473ffffffffffffffffffffffffffffffffffffffff1673ffffffffffffffffffffffffffffffffffffffff1614159050919050565b600073ffffffffffffffffffffffffffffffffffffffff1660008084815260200190815260200160002060009054906101000a900473ffffffffffffffffffffffffffffffffffffffff1673ffffffffffffffffffffffffffffffffffffffff1614156103a5576040517f08c379a000000000000000000000000000000000000000000000000000000000815260040161039c90610be5565b60405180910390fd5b3373ffffffffffffffffffffffffffffffffffffffff1660008084815260200190815260200160002060009054906101000a900473ffffffffffffffffffffffffffffffffffffffff1673ffffffffffffffffffffffffffffffffffffffff1614610445576040517f08c379a000000000000000000000000000000000000000000000000000000000815260040161043c90610c85565b60405180910390fd5b600073ffffffffffffffffffffffffffffffffffffffff168173ffffffffffffffffffffffffffffffffffffffff1614156104b5576040517f08c379a00000000000000000000000000000000000000000000000000000000081526004016104ac90610c25565b60405180910390fd5b3373ffffffffffffffffffffffffffffffffffffffff168173ffffffffffffffffffffffffffffffffffffffff161415610524576040517f08c379a000000000000000000000000000000000000000000000000000000000815260040161051b90610c45565b60405180910390fd5b600080600084815260200190815260200160002060009054906101000a900473ffffffffffffffffffffffffffffffffffffffff1690508160008085815260200190815260200160002060006101000a81548173ffffffffffffffffffffffffffffffffffffffff021916908373ffffffffffffffffffffffffffffffffffffffff1602179055507fcef86d37ba3dc1d682967cde44d8050488734bf53166725b220b4d2e515e9e938382846040516105df93929190610ca5565b60405180910390a1505050565b600160009054906101000a900473ffffffffffffffffffffffffffffffffffffffff1673ffffffffffffffffffffffffffffffffffffffff163373ffffffffffffffffffffffffffffffffffffffff161461067c576040517f08c379a000000000000000000000000000000000000000000000000000000000815260040161067390610c65565b60405180910390fd5b80518251146106c0576040517f08c379a00000000000000000000000000000000000000000000000000000000081526004016106b790610c05565b60405180910390fd5b60005b82518110156107b057818181518110610705577f4e487b7100000000000000000000000000000000000000000000000000000000600052603260045260246000fd5b6020026020010151600080858481518110610749577f4e487b7100000000000000000000000000000000000000000000000000000000600052603260045260246000fd5b6020026020010151815260200190815260200160002060006101000a81548173ffffffffffffffffffffffffffffffffffffffff021916908373ffffffffffffffffffffffffffffffffffffffff16021790555080806107a890610dbe565b9150506106c3565b505050565b60006107c86107c384610d0d565b610cdc565b905080838252602082019050828560208602820111156107e757600080fd5b60005b8581101561081757816107fd888261088d565b8452602084019350602083019250506001810190506107ea565b5050509392505050565b600061083461082f84610d39565b610cdc565b9050808382526020820190508285602086028201111561085357600080fd5b60005b85811015610883578161086988826108f6565b845260208401935060208301925050600181019050610856565b5050509392505050565b60008135905061089c81610e65565b92915050565b600082601f8301126108b357600080fd5b81356108c38482602086016107b5565b91505092915050565b600082601f8301126108dd57600080fd5b81356108ed848260208601610821565b91505092915050565b60008135905061090581610e7c565b92915050565b6000806040838503121561091e57600080fd5b600083013567ffffffffffffffff81111561093857600080fd5b610944858286016108cc565b925050602083013567ffffffffffffffff81111561096157600080fd5b61096d858286016108a2565b9150509250929050565b60006020828403121561098957600080fd5b6000610997848285016108f6565b91505092915050565b600080604083850312156109b357600080fd5b60006109c1858286016108f6565b92505060206109d28582860161088d565b9150509250929050565b6109e581610d76565b82525050565b6109f481610d88565b82525050565b6000610a07601683610d65565b91507f50726f6475637420646f6573206e6f74206578697374000000000000000000006000830152602082019050919050565b6000610a47601c83610d65565b91507f417272617973206d75737420686176652073616d65206c656e677468000000006000830152602082019050919050565b6000610a87601983610d65565b91507f496e76616c69642077617265686f7573652061646472657373000000000000006000830152602082019050919050565b6000610ac7602183610d65565b91507f43616e6e6f74207472616e7366657220746f2073616d652077617265686f757360008301527f65000000000000000000000000000000000000000000000000000000000000006020830152604082019050919050565b6000610b2d601383610d65565b91507f4f6e6c7920636f6e7472616374206f776e6572000000000000000000000000006000830152602082019050919050565b6000610b6d601f83610d65565b91507f4e6f74207468652063757272656e742077617265686f757365206f776e6572006000830152602082019050919050565b610ba981610db4565b82525050565b6000602082019050610bc460008301846109dc565b92915050565b6000602082019050610bdf60008301846109eb565b92915050565b60006020820190508181036000830152610bfe816109fa565b9050919050565b60006020820190508181036000830152610c1e81610a3a565b9050919050565b60006020820190508181036000830152610c3e81610a7a565b9050919050565b60006020820190508181036000830152610c5e81610aba565b9050919050565b60006020820190508181036000830152610c7e81610b20565b9050919050565b60006020820190508181036000830152610c9e81610b60565b9050919050565b6000606082019050610cba6000830186610ba0565b610cc760208301856109dc565b610cd460408301846109dc565b949350505050565b6000604051905081810181811067ffffffffffffffff82111715610d0357610d02610e36565b5b8060405250919050565b600067ffffffffffffffff821115610d2857610d27610e36565b5b602082029050602081019050919050565b600067ffffffffffffffff821115610d5457610d53610e36565b5b602082029050602081019050919050565b600082825260208201905092915050565b6000610d8182610d94565b9050919050565b60008115159050919050565b600073ffffffffffffffffffffffffffffffffffffffff82169050919050565b6000819050919050565b6000610dc982610db4565b91507fffffffffffffffffffffffffffffffffffffffffffffffffffffffffffffffff821415610dfc57610dfb610e07565b5b600182019050919050565b7f4e487b7100000000000000000000000000000000000000000000000000000000600052601160045260246000fd5b7f4e487b7100000000000000000000000000000000000000000000000000000000600052604160045260246000fd5b610e6e81610d76565b8114610e7957600080fd5b50565b610e8581610db4565b8114610e9057600080fd5b5056fea264697066735822122047c8a2ce443be119a4d2ec227e82d92f225fce8052844c88a87abc3ac4b47d0b64736f6c63430008000033",
  "immutableReferences": {},
  "source": "// SPDX-License-Identifier: UNLICENSED\r\npragma solidity ^0.8.0;\r\n\r\ncontract WarehouseTransfer {\r\n    // Mapping para trackear qué bodega tiene cada producto\r\n    mapping(uint256 => address) public productWarehouse;\r\n    \r\n    // Dueño del contrato (puede inicializar productos)\r\n    address public owner;\r\n    \r\n    // Eventos para tracking\r\n    event ProductTransferred(uint256 productId, address fromWarehouse, address toWarehouse);\r\n    event OwnershipVerified(uint256 productId, address warehouse, bool isOwner);\r\n    \r\n    // Modifier para solo owner\r\n    modifier onlyOwner() {\r\n        require(msg.sender == owner, \"Only contract owner\");\r\n        _;\r\n    }\r\n    \r\n    constructor() {\r\n        owner = msg.sender;\r\n    }\r\n    \r\n    // Inicializar productos con bodegas iniciales (solo owner)\r\n    function initializeProducts(uint256[] memory productIds, address[] memory warehouses) public onlyOwner {\r\n        require(productIds.length == warehouses.length, \"Arrays must have same length\");\r\n        \r\n        for (uint256 i = 0; i < productIds.length; i++) {\r\n            productWarehouse[productIds[i]] = warehouses[i];\r\n        }\r\n    }\r\n    \r\n    // Transferir producto (solo la bodega actual puede transferir)\r\n    function transferProduct(uint256 productId, address toWarehouse) public {\r\n        require(productWarehouse[productId] != address(0), \"Product does not exist\");\r\n        require(productWarehouse[productId] == msg.sender, \"Not the current warehouse owner\");\r\n        require(toWarehouse != address(0), \"Invalid warehouse address\");\r\n        require(toWarehouse != msg.sender, \"Cannot transfer to same warehouse\");\r\n        \r\n        address fromWarehouse = productWarehouse[productId];\r\n        productWarehouse[productId] = toWarehouse;\r\n        \r\n        emit ProductTransferred(productId, fromWarehouse, toWarehouse);\r\n    }\r\n    \r\n    // Verificar ownership (función view - sin costo de gas)\r\n    function verifyOwnership(uint256 productId, address warehouse) public view returns (bool) {\r\n        return productWarehouse[productId] == warehouse;\r\n    }\r\n    \r\n    // Obtener bodega actual de un producto\r\n    function getProductWarehouse(uint256 productId) public view returns (address) {\r\n        return productWarehouse[productId];\r\n    }\r\n    \r\n    // Verificar si producto existe\r\n    function productExists(uint256 productId) public view returns (bool) {\r\n        return productWarehouse[productId] != address(0);\r\n    }\r\n\r\n    \r\n}",
  "sourcePath": "C:\\Users\\joshu\\Downloads\\2nd_Ganache_Test\\contracts\\WarehouseTransfer.sol",
  "compiler": {
    "name": "solc",
    "version": "0.8.0+commit.c7dfd78e.Emscripten.clang"
  },
  "schemaVersion": "3.4.16",
  "updatedAt": "2025-09-10T17:56:42.401Z",
  "networkType": "ethereum",
  "devdoc": {
    "kind": "dev",
    "methods": {},
    "version": 1
  },
  "userdoc": {
    "kind": "user",
    "methods": {},
    "version": 1
  }
}